{
	"Subasta.sol": {
		"Subasta": {
			"abi": [
				{
					"inputs": [],
					"stateMutability": "nonpayable",
					"type": "constructor"
				},
				{
					"inputs": [],
					"name": "FinzalizarSubastas",
					"outputs": [],
					"stateMutability": "nonpayable",
					"type": "function"
				},
				{
					"inputs": [],
					"name": "fechaInicio",
					"outputs": [
						{
							"internalType": "uint256",
							"name": "",
							"type": "uint256"
						}
					],
					"stateMutability": "view",
					"type": "function"
				},
				{
					"inputs": [],
					"name": "getMayorOferta",
					"outputs": [
						{
							"internalType": "uint256",
							"name": "",
							"type": "uint256"
						}
					],
					"stateMutability": "view",
					"type": "function"
				},
				{
					"inputs": [],
					"name": "getOferenteGanador",
					"outputs": [
						{
							"internalType": "address",
							"name": "",
							"type": "address"
						}
					],
					"stateMutability": "view",
					"type": "function"
				},
				{
					"inputs": [],
					"name": "mayorOferta",
					"outputs": [
						{
							"internalType": "uint256",
							"name": "",
							"type": "uint256"
						}
					],
					"stateMutability": "view",
					"type": "function"
				},
				{
					"inputs": [],
					"name": "ofertanteGanador",
					"outputs": [
						{
							"internalType": "address",
							"name": "",
							"type": "address"
						}
					],
					"stateMutability": "view",
					"type": "function"
				},
				{
					"inputs": [],
					"name": "semaforo",
					"outputs": [
						{
							"internalType": "uint8",
							"name": "",
							"type": "uint8"
						}
					],
					"stateMutability": "view",
					"type": "function"
				},
				{
					"inputs": [],
					"name": "setOferta",
					"outputs": [],
					"stateMutability": "payable",
					"type": "function"
				},
				{
					"inputs": [],
					"name": "tiempoDuracion",
					"outputs": [
						{
							"internalType": "uint256",
							"name": "",
							"type": "uint256"
						}
					],
					"stateMutability": "view",
					"type": "function"
				},
				{
					"inputs": [],
					"name": "valorInicial",
					"outputs": [
						{
							"internalType": "uint256",
							"name": "",
							"type": "uint256"
						}
					],
					"stateMutability": "view",
					"type": "function"
				},
				{
					"inputs": [
						{
							"internalType": "address",
							"name": "",
							"type": "address"
						}
					],
					"name": "valoreMetido",
					"outputs": [
						{
							"internalType": "uint256",
							"name": "",
							"type": "uint256"
						}
					],
					"stateMutability": "view",
					"type": "function"
				}
			],
			"devdoc": {
				"kind": "dev",
				"methods": {},
				"version": 1
			},
			"evm": {
				"assembly": "    /* \"Subasta.sol\":67:2007  contract Subasta{... */\n  mstore(0x40, 0x80)\n    /* \"Subasta.sol\":503:733  constructor() {... */\n  callvalue\n  dup1\n  iszero\n  tag_1\n  jumpi\n  0x00\n  dup1\n  revert\ntag_1:\n  pop\n    /* \"Subasta.sol\":538:548  msg.sender */\n  caller\n    /* \"Subasta.sol\":530:535  owner */\n  0x05\n  0x00\n    /* \"Subasta.sol\":530:548  owner = msg.sender */\n  0x0100\n  exp\n  dup2\n  sload\n  dup2\n  0xffffffffffffffffffffffffffffffffffffffff\n  mul\n  not\n  and\n  swap1\n  dup4\n  0xffffffffffffffffffffffffffffffffffffffff\n  and\n  mul\n  or\n  swap1\n  sstore\n  pop\n    /* \"Subasta.sol\":575:581  1 gwei */\n  0x3b9aca00\n    /* \"Subasta.sol\":561:573  valorInicial */\n  0x00\n    /* \"Subasta.sol\":561:581  valorInicial= 1 gwei */\n  dup2\n  swap1\n  sstore\n  pop\n    /* \"Subasta.sol\":608:623  block.timestamp */\n  timestamp\n    /* \"Subasta.sol\":594:605  fechaInicio */\n  0x01\n    /* \"Subasta.sol\":594:623  fechaInicio = block.timestamp */\n  dup2\n  swap1\n  sstore\n  pop\n    /* \"Subasta.sol\":717:723  7 days */\n  0x093a80\n    /* \"Subasta.sol\":703:714  fechaInicio */\n  sload(0x01)\n    /* \"Subasta.sol\":703:723  fechaInicio + 7 days */\n  tag_4\n  swap2\n  swap1\n  tag_5\n  jump\t// in\ntag_4:\n    /* \"Subasta.sol\":686:700  tiempoDuracion */\n  0x02\n    /* \"Subasta.sol\":686:723  tiempoDuracion = fechaInicio + 7 days */\n  dup2\n  swap1\n  sstore\n  pop\n    /* \"Subasta.sol\":67:2007  contract Subasta{... */\n  jump(tag_6)\n    /* \"#utility.yul\":7:84   */\ntag_7:\n    /* \"#utility.yul\":44:51   */\n  0x00\n    /* \"#utility.yul\":73:78   */\n  dup2\n    /* \"#utility.yul\":62:78   */\n  swap1\n  pop\n    /* \"#utility.yul\":7:84   */\n  swap2\n  swap1\n  pop\n  jump\t// out\n    /* \"#utility.yul\":90:270   */\ntag_8:\n    /* \"#utility.yul\":138:215   */\n  0x4e487b7100000000000000000000000000000000000000000000000000000000\n    /* \"#utility.yul\":135:136   */\n  0x00\n    /* \"#utility.yul\":128:216   */\n  mstore\n    /* \"#utility.yul\":235:239   */\n  0x11\n    /* \"#utility.yul\":232:233   */\n  0x04\n    /* \"#utility.yul\":225:240   */\n  mstore\n    /* \"#utility.yul\":259:263   */\n  0x24\n    /* \"#utility.yul\":256:257   */\n  0x00\n    /* \"#utility.yul\":249:264   */\n  revert\n    /* \"#utility.yul\":276:467   */\ntag_5:\n    /* \"#utility.yul\":316:319   */\n  0x00\n    /* \"#utility.yul\":335:355   */\n  tag_13\n    /* \"#utility.yul\":353:354   */\n  dup3\n    /* \"#utility.yul\":335:355   */\n  tag_7\n  jump\t// in\ntag_13:\n    /* \"#utility.yul\":330:355   */\n  swap2\n  pop\n    /* \"#utility.yul\":369:389   */\n  tag_14\n    /* \"#utility.yul\":387:388   */\n  dup4\n    /* \"#utility.yul\":369:389   */\n  tag_7\n  jump\t// in\ntag_14:\n    /* \"#utility.yul\":364:389   */\n  swap3\n  pop\n    /* \"#utility.yul\":412:413   */\n  dup3\n    /* \"#utility.yul\":409:410   */\n  dup3\n    /* \"#utility.yul\":405:414   */\n  add\n    /* \"#utility.yul\":398:414   */\n  swap1\n  pop\n    /* \"#utility.yul\":433:436   */\n  dup1\n    /* \"#utility.yul\":430:431   */\n  dup3\n    /* \"#utility.yul\":427:437   */\n  gt\n    /* \"#utility.yul\":424:460   */\n  iszero\n  tag_15\n  jumpi\n    /* \"#utility.yul\":440:458   */\n  tag_16\n  tag_8\n  jump\t// in\ntag_16:\n    /* \"#utility.yul\":424:460   */\ntag_15:\n    /* \"#utility.yul\":276:467   */\n  swap3\n  swap2\n  pop\n  pop\n  jump\t// out\n    /* \"Subasta.sol\":67:2007  contract Subasta{... */\ntag_6:\n  dataSize(sub_0)\n  dup1\n  dataOffset(sub_0)\n  0x00\n  codecopy\n  0x00\n  return\nstop\n\nsub_0: assembly {\n        /* \"Subasta.sol\":67:2007  contract Subasta{... */\n      mstore(0x40, 0x80)\n      jumpi(tag_1, lt(calldatasize, 0x04))\n      shr(0xe0, calldataload(0x00))\n      dup1\n      0x83f28094\n      gt\n      tag_13\n      jumpi\n      dup1\n      0x83f28094\n      eq\n      tag_7\n      jumpi\n      dup1\n      0x86549369\n      eq\n      tag_8\n      jumpi\n      dup1\n      0xcb4ee133\n      eq\n      tag_9\n      jumpi\n      dup1\n      0xeb478056\n      eq\n      tag_10\n      jumpi\n      dup1\n      0xf128a3dd\n      eq\n      tag_11\n      jumpi\n      dup1\n      0xfc373179\n      eq\n      tag_12\n      jumpi\n      jump(tag_1)\n    tag_13:\n      dup1\n      0x209e1d46\n      eq\n      tag_2\n      jumpi\n      dup1\n      0x35e55041\n      eq\n      tag_3\n      jumpi\n      dup1\n      0x3f0cc5e8\n      eq\n      tag_4\n      jumpi\n      dup1\n      0x7c748b51\n      eq\n      tag_5\n      jumpi\n      dup1\n      0x7f64be4a\n      eq\n      tag_6\n      jumpi\n    tag_1:\n      0x00\n      dup1\n      revert\n        /* \"Subasta.sol\":772:879  function getOferenteGanador() external view returns (address){... */\n    tag_2:\n      callvalue\n      dup1\n      iszero\n      tag_14\n      jumpi\n      0x00\n      dup1\n      revert\n    tag_14:\n      pop\n      tag_15\n      tag_16\n      jump\t// in\n    tag_15:\n      mload(0x40)\n      tag_17\n      swap2\n      swap1\n      tag_18\n      jump\t// in\n    tag_17:\n      mload(0x40)\n      dup1\n      swap2\n      sub\n      swap1\n      return\n        /* \"Subasta.sol\":918:1016  function getMayorOferta() external view returns (uint256){... */\n    tag_3:\n      callvalue\n      dup1\n      iszero\n      tag_19\n      jumpi\n      0x00\n      dup1\n      revert\n    tag_19:\n      pop\n      tag_20\n      tag_21\n      jump\t// in\n    tag_20:\n      mload(0x40)\n      tag_22\n      swap2\n      swap1\n      tag_23\n      jump\t// in\n    tag_22:\n      mload(0x40)\n      dup1\n      swap2\n      sub\n      swap1\n      return\n        /* \"Subasta.sol\":1055:1768  function setOferta() external payable {... */\n    tag_4:\n      tag_24\n      tag_25\n      jump\t// in\n    tag_24:\n      stop\n        /* \"Subasta.sol\":411:460  mapping (address => uint256 ) public valoreMetido */\n    tag_5:\n      callvalue\n      dup1\n      iszero\n      tag_26\n      jumpi\n      0x00\n      dup1\n      revert\n    tag_26:\n      pop\n      tag_27\n      0x04\n      dup1\n      calldatasize\n      sub\n      dup2\n      add\n      swap1\n      tag_28\n      swap2\n      swap1\n      tag_29\n      jump\t// in\n    tag_28:\n      tag_30\n      jump\t// in\n    tag_27:\n      mload(0x40)\n      tag_31\n      swap2\n      swap1\n      tag_23\n      jump\t// in\n    tag_31:\n      mload(0x40)\n      dup1\n      swap2\n      sub\n      swap1\n      return\n        /* \"Subasta.sol\":201:227  uint256 public mayorOferta */\n    tag_6:\n      callvalue\n      dup1\n      iszero\n      tag_32\n      jumpi\n      0x00\n      dup1\n      revert\n    tag_32:\n      pop\n      tag_33\n      tag_34\n      jump\t// in\n    tag_33:\n      mload(0x40)\n      tag_35\n      swap2\n      swap1\n      tag_23\n      jump\t// in\n    tag_35:\n      mload(0x40)\n      dup1\n      swap2\n      sub\n      swap1\n      return\n        /* \"Subasta.sol\":92:119  uint256 public valorInicial */\n    tag_7:\n      callvalue\n      dup1\n      iszero\n      tag_36\n      jumpi\n      0x00\n      dup1\n      revert\n    tag_36:\n      pop\n      tag_37\n      tag_38\n      jump\t// in\n    tag_37:\n      mload(0x40)\n      tag_39\n      swap2\n      swap1\n      tag_23\n      jump\t// in\n    tag_39:\n      mload(0x40)\n      dup1\n      swap2\n      sub\n      swap1\n      return\n        /* \"Subasta.sol\":163:192  uint256 public tiempoDuracion */\n    tag_8:\n      callvalue\n      dup1\n      iszero\n      tag_40\n      jumpi\n      0x00\n      dup1\n      revert\n    tag_40:\n      pop\n      tag_41\n      tag_42\n      jump\t// in\n    tag_41:\n      mload(0x40)\n      tag_43\n      swap2\n      swap1\n      tag_23\n      jump\t// in\n    tag_43:\n      mload(0x40)\n      dup1\n      swap2\n      sub\n      swap1\n      return\n        /* \"Subasta.sol\":276:297  uint8 public semaforo */\n    tag_9:\n      callvalue\n      dup1\n      iszero\n      tag_44\n      jumpi\n      0x00\n      dup1\n      revert\n    tag_44:\n      pop\n      tag_45\n      tag_46\n      jump\t// in\n    tag_45:\n      mload(0x40)\n      tag_47\n      swap2\n      swap1\n      tag_48\n      jump\t// in\n    tag_47:\n      mload(0x40)\n      dup1\n      swap2\n      sub\n      swap1\n      return\n        /* \"Subasta.sol\":236:267  address public ofertanteGanador */\n    tag_10:\n      callvalue\n      dup1\n      iszero\n      tag_49\n      jumpi\n      0x00\n      dup1\n      revert\n    tag_49:\n      pop\n      tag_50\n      tag_51\n      jump\t// in\n    tag_50:\n      mload(0x40)\n      tag_52\n      swap2\n      swap1\n      tag_18\n      jump\t// in\n    tag_52:\n      mload(0x40)\n      dup1\n      swap2\n      sub\n      swap1\n      return\n        /* \"Subasta.sol\":1781:1997  function FinzalizarSubastas() external  {... */\n    tag_11:\n      callvalue\n      dup1\n      iszero\n      tag_53\n      jumpi\n      0x00\n      dup1\n      revert\n    tag_53:\n      pop\n      tag_54\n      tag_55\n      jump\t// in\n    tag_54:\n      stop\n        /* \"Subasta.sol\":128:154  uint256 public fechaInicio */\n    tag_12:\n      callvalue\n      dup1\n      iszero\n      tag_56\n      jumpi\n      0x00\n      dup1\n      revert\n    tag_56:\n      pop\n      tag_57\n      tag_58\n      jump\t// in\n    tag_57:\n      mload(0x40)\n      tag_59\n      swap2\n      swap1\n      tag_23\n      jump\t// in\n    tag_59:\n      mload(0x40)\n      dup1\n      swap2\n      sub\n      swap1\n      return\n        /* \"Subasta.sol\":772:879  function getOferenteGanador() external view returns (address){... */\n    tag_16:\n        /* \"Subasta.sol\":825:832  address */\n      0x00\n        /* \"Subasta.sol\":853:869  ofertanteGanador */\n      0x04\n      0x00\n      swap1\n      sload\n      swap1\n      0x0100\n      exp\n      swap1\n      div\n      0xffffffffffffffffffffffffffffffffffffffff\n      and\n        /* \"Subasta.sol\":846:869  return ofertanteGanador */\n      swap1\n      pop\n        /* \"Subasta.sol\":772:879  function getOferenteGanador() external view returns (address){... */\n      swap1\n      jump\t// out\n        /* \"Subasta.sol\":918:1016  function getMayorOferta() external view returns (uint256){... */\n    tag_21:\n        /* \"Subasta.sol\":967:974  uint256 */\n      0x00\n        /* \"Subasta.sol\":995:1006  mayorOferta */\n      sload(0x03)\n        /* \"Subasta.sol\":988:1006  return mayorOferta */\n      swap1\n      pop\n        /* \"Subasta.sol\":918:1016  function getMayorOferta() external view returns (uint256){... */\n      swap1\n      jump\t// out\n        /* \"Subasta.sol\":1055:1768  function setOferta() external payable {... */\n    tag_25:\n        /* \"Subasta.sol\":1171:1172  0 */\n      0x00\n        /* \"Subasta.sol\":1159:1167  semaforo */\n      0x04\n      0x14\n      swap1\n      sload\n      swap1\n      0x0100\n      exp\n      swap1\n      div\n      0xff\n      and\n        /* \"Subasta.sol\":1159:1172  semaforo == 0 */\n      0xff\n      and\n      eq\n        /* \"Subasta.sol\":1151:1196  require(semaforo == 0, \"la subasta finalizo\") */\n      tag_63\n      jumpi\n      mload(0x40)\n      0x08c379a000000000000000000000000000000000000000000000000000000000\n      dup2\n      mstore\n      0x04\n      add\n      tag_64\n      swap1\n      tag_65\n      jump\t// in\n    tag_64:\n      mload(0x40)\n      dup1\n      swap2\n      sub\n      swap1\n      revert\n    tag_63:\n        /* \"Subasta.sol\":1280:1301  uint256 _valorOferado */\n      0x00\n        /* \"Subasta.sol\":1304:1313  msg.value */\n      callvalue\n        /* \"Subasta.sol\":1280:1313  uint256 _valorOferado = msg.value */\n      swap1\n      pop\n        /* \"Subasta.sol\":1350:1362  valorInicial */\n      sload(0x00)\n        /* \"Subasta.sol\":1334:1347  _valorOferado */\n      dup2\n        /* \"Subasta.sol\":1334:1362  _valorOferado > valorInicial */\n      gt\n        /* \"Subasta.sol\":1326:1389  require(_valorOferado > valorInicial, \"valor menor al inicial\") */\n      tag_66\n      jumpi\n      mload(0x40)\n      0x08c379a000000000000000000000000000000000000000000000000000000000\n      dup2\n      mstore\n      0x04\n      add\n      tag_67\n      swap1\n      tag_68\n      jump\t// in\n    tag_67:\n      mload(0x40)\n      dup1\n      swap2\n      sub\n      swap1\n      revert\n    tag_66:\n        /* \"Subasta.sol\":1427:1438  mayorOferta */\n      sload(0x03)\n        /* \"Subasta.sol\":1411:1424  _valorOferado */\n      dup2\n        /* \"Subasta.sol\":1411:1438  _valorOferado > mayorOferta */\n      gt\n        /* \"Subasta.sol\":1407:1759  if (_valorOferado > mayorOferta){... */\n      iszero\n      tag_69\n      jumpi\n        /* \"Subasta.sol\":1456:1479  address _adressOferente */\n      0x00\n        /* \"Subasta.sol\":1482:1492  msg.sender */\n      caller\n        /* \"Subasta.sol\":1456:1492  address _adressOferente = msg.sender */\n      swap1\n      pop\n        /* \"Subasta.sol\":1523:1536  _valorOferado */\n      dup2\n        /* \"Subasta.sol\":1509:1520  mayorOferta */\n      0x03\n        /* \"Subasta.sol\":1509:1536  mayorOferta = _valorOferado */\n      dup2\n      swap1\n      sstore\n      pop\n        /* \"Subasta.sol\":1573:1588  _adressOferente */\n      dup1\n        /* \"Subasta.sol\":1554:1570  ofertanteGanador */\n      0x04\n      0x00\n        /* \"Subasta.sol\":1554:1588  ofertanteGanador = _adressOferente */\n      0x0100\n      exp\n      dup2\n      sload\n      dup2\n      0xffffffffffffffffffffffffffffffffffffffff\n      mul\n      not\n      and\n      swap1\n      dup4\n      0xffffffffffffffffffffffffffffffffffffffff\n      and\n      mul\n      or\n      swap1\n      sstore\n      pop\n        /* \"Subasta.sol\":1638:1651  _valorOferado */\n      dup2\n        /* \"Subasta.sol\":1605:1617  valoreMetido */\n      0x06\n        /* \"Subasta.sol\":1605:1634  valoreMetido[_adressOferente] */\n      0x00\n        /* \"Subasta.sol\":1618:1633  _adressOferente */\n      dup4\n        /* \"Subasta.sol\":1605:1634  valoreMetido[_adressOferente] */\n      0xffffffffffffffffffffffffffffffffffffffff\n      and\n      0xffffffffffffffffffffffffffffffffffffffff\n      and\n      dup2\n      mstore\n      0x20\n      add\n      swap1\n      dup2\n      mstore\n      0x20\n      add\n      0x00\n      keccak256\n      0x00\n        /* \"Subasta.sol\":1605:1651  valoreMetido[_adressOferente] += _valorOferado */\n      dup3\n      dup3\n      sload\n      tag_70\n      swap2\n      swap1\n      tag_71\n      jump\t// in\n    tag_70:\n      swap3\n      pop\n      pop\n      dup2\n      swap1\n      sstore\n      pop\n        /* \"Subasta.sol\":1439:1665  {... */\n      pop\n        /* \"Subasta.sol\":1407:1759  if (_valorOferado > mayorOferta){... */\n      jump(tag_72)\n    tag_69:\n        /* \"Subasta.sol\":1687:1709  revert(\"no superaste\") */\n      mload(0x40)\n      0x08c379a000000000000000000000000000000000000000000000000000000000\n      dup2\n      mstore\n      0x04\n      add\n      tag_73\n      swap1\n      tag_74\n      jump\t// in\n    tag_73:\n      mload(0x40)\n      dup1\n      swap2\n      sub\n      swap1\n      revert\n        /* \"Subasta.sol\":1407:1759  if (_valorOferado > mayorOferta){... */\n    tag_72:\n        /* \"Subasta.sol\":1093:1768  {... */\n      pop\n        /* \"Subasta.sol\":1055:1768  function setOferta() external payable {... */\n      jump\t// out\n        /* \"Subasta.sol\":411:460  mapping (address => uint256 ) public valoreMetido */\n    tag_30:\n      mstore(0x20, 0x06)\n      dup1\n      0x00\n      mstore\n      keccak256(0x00, 0x40)\n      0x00\n      swap2\n      pop\n      swap1\n      pop\n      sload\n      dup2\n      jump\t// out\n        /* \"Subasta.sol\":201:227  uint256 public mayorOferta */\n    tag_34:\n      sload(0x03)\n      dup2\n      jump\t// out\n        /* \"Subasta.sol\":92:119  uint256 public valorInicial */\n    tag_38:\n      sload(0x00)\n      dup2\n      jump\t// out\n        /* \"Subasta.sol\":163:192  uint256 public tiempoDuracion */\n    tag_42:\n      sload(0x02)\n      dup2\n      jump\t// out\n        /* \"Subasta.sol\":276:297  uint8 public semaforo */\n    tag_46:\n      0x04\n      0x14\n      swap1\n      sload\n      swap1\n      0x0100\n      exp\n      swap1\n      div\n      0xff\n      and\n      dup2\n      jump\t// out\n        /* \"Subasta.sol\":236:267  address public ofertanteGanador */\n    tag_51:\n      0x04\n      0x00\n      swap1\n      sload\n      swap1\n      0x0100\n      exp\n      swap1\n      div\n      0xffffffffffffffffffffffffffffffffffffffff\n      and\n      dup2\n      jump\t// out\n        /* \"Subasta.sol\":1781:1997  function FinzalizarSubastas() external  {... */\n    tag_55:\n        /* \"Subasta.sol\":1849:1859  msg.sender */\n      caller\n        /* \"Subasta.sol\":1842:1859  owner==msg.sender */\n      0xffffffffffffffffffffffffffffffffffffffff\n      and\n        /* \"Subasta.sol\":1842:1847  owner */\n      0x05\n      0x00\n      swap1\n      sload\n      swap1\n      0x0100\n      exp\n      swap1\n      div\n      0xffffffffffffffffffffffffffffffffffffffff\n      and\n        /* \"Subasta.sol\":1842:1859  owner==msg.sender */\n      0xffffffffffffffffffffffffffffffffffffffff\n      and\n      eq\n        /* \"Subasta.sol\":1834:1886  require(owner==msg.sender,\"usted no tiene permisos\") */\n      tag_76\n      jumpi\n      mload(0x40)\n      0x08c379a000000000000000000000000000000000000000000000000000000000\n      dup2\n      mstore\n      0x04\n      add\n      tag_77\n      swap1\n      tag_78\n      jump\t// in\n    tag_77:\n      mload(0x40)\n      dup1\n      swap2\n      sub\n      swap1\n      revert\n    tag_76:\n        /* \"Subasta.sol\":1910:1911  1 */\n      0x01\n        /* \"Subasta.sol\":1899:1907  semaforo */\n      0x04\n      0x14\n        /* \"Subasta.sol\":1899:1911  semaforo = 1 */\n      0x0100\n      exp\n      dup2\n      sload\n      dup2\n      0xff\n      mul\n      not\n      and\n      swap1\n      dup4\n      0xff\n      and\n      mul\n      or\n      swap1\n      sstore\n      pop\n        /* \"Subasta.sol\":1781:1997  function FinzalizarSubastas() external  {... */\n      jump\t// out\n        /* \"Subasta.sol\":128:154  uint256 public fechaInicio */\n    tag_58:\n      sload(0x01)\n      dup2\n      jump\t// out\n        /* \"#utility.yul\":7:133   */\n    tag_79:\n        /* \"#utility.yul\":44:51   */\n      0x00\n        /* \"#utility.yul\":84:126   */\n      0xffffffffffffffffffffffffffffffffffffffff\n        /* \"#utility.yul\":77:82   */\n      dup3\n        /* \"#utility.yul\":73:127   */\n      and\n        /* \"#utility.yul\":62:127   */\n      swap1\n      pop\n        /* \"#utility.yul\":7:133   */\n      swap2\n      swap1\n      pop\n      jump\t// out\n        /* \"#utility.yul\":139:235   */\n    tag_80:\n        /* \"#utility.yul\":176:183   */\n      0x00\n        /* \"#utility.yul\":205:229   */\n      tag_104\n        /* \"#utility.yul\":223:228   */\n      dup3\n        /* \"#utility.yul\":205:229   */\n      tag_79\n      jump\t// in\n    tag_104:\n        /* \"#utility.yul\":194:229   */\n      swap1\n      pop\n        /* \"#utility.yul\":139:235   */\n      swap2\n      swap1\n      pop\n      jump\t// out\n        /* \"#utility.yul\":241:359   */\n    tag_81:\n        /* \"#utility.yul\":328:352   */\n      tag_106\n        /* \"#utility.yul\":346:351   */\n      dup2\n        /* \"#utility.yul\":328:352   */\n      tag_80\n      jump\t// in\n    tag_106:\n        /* \"#utility.yul\":323:326   */\n      dup3\n        /* \"#utility.yul\":316:353   */\n      mstore\n        /* \"#utility.yul\":241:359   */\n      pop\n      pop\n      jump\t// out\n        /* \"#utility.yul\":365:587   */\n    tag_18:\n        /* \"#utility.yul\":458:462   */\n      0x00\n        /* \"#utility.yul\":496:498   */\n      0x20\n        /* \"#utility.yul\":485:494   */\n      dup3\n        /* \"#utility.yul\":481:499   */\n      add\n        /* \"#utility.yul\":473:499   */\n      swap1\n      pop\n        /* \"#utility.yul\":509:580   */\n      tag_108\n        /* \"#utility.yul\":577:578   */\n      0x00\n        /* \"#utility.yul\":566:575   */\n      dup4\n        /* \"#utility.yul\":562:579   */\n      add\n        /* \"#utility.yul\":553:559   */\n      dup5\n        /* \"#utility.yul\":509:580   */\n      tag_81\n      jump\t// in\n    tag_108:\n        /* \"#utility.yul\":365:587   */\n      swap3\n      swap2\n      pop\n      pop\n      jump\t// out\n        /* \"#utility.yul\":593:670   */\n    tag_82:\n        /* \"#utility.yul\":630:637   */\n      0x00\n        /* \"#utility.yul\":659:664   */\n      dup2\n        /* \"#utility.yul\":648:664   */\n      swap1\n      pop\n        /* \"#utility.yul\":593:670   */\n      swap2\n      swap1\n      pop\n      jump\t// out\n        /* \"#utility.yul\":676:794   */\n    tag_83:\n        /* \"#utility.yul\":763:787   */\n      tag_111\n        /* \"#utility.yul\":781:786   */\n      dup2\n        /* \"#utility.yul\":763:787   */\n      tag_82\n      jump\t// in\n    tag_111:\n        /* \"#utility.yul\":758:761   */\n      dup3\n        /* \"#utility.yul\":751:788   */\n      mstore\n        /* \"#utility.yul\":676:794   */\n      pop\n      pop\n      jump\t// out\n        /* \"#utility.yul\":800:1022   */\n    tag_23:\n        /* \"#utility.yul\":893:897   */\n      0x00\n        /* \"#utility.yul\":931:933   */\n      0x20\n        /* \"#utility.yul\":920:929   */\n      dup3\n        /* \"#utility.yul\":916:934   */\n      add\n        /* \"#utility.yul\":908:934   */\n      swap1\n      pop\n        /* \"#utility.yul\":944:1015   */\n      tag_113\n        /* \"#utility.yul\":1012:1013   */\n      0x00\n        /* \"#utility.yul\":1001:1010   */\n      dup4\n        /* \"#utility.yul\":997:1014   */\n      add\n        /* \"#utility.yul\":988:994   */\n      dup5\n        /* \"#utility.yul\":944:1015   */\n      tag_83\n      jump\t// in\n    tag_113:\n        /* \"#utility.yul\":800:1022   */\n      swap3\n      swap2\n      pop\n      pop\n      jump\t// out\n        /* \"#utility.yul\":1109:1226   */\n    tag_85:\n        /* \"#utility.yul\":1218:1219   */\n      0x00\n        /* \"#utility.yul\":1215:1216   */\n      dup1\n        /* \"#utility.yul\":1208:1220   */\n      revert\n        /* \"#utility.yul\":1355:1477   */\n    tag_87:\n        /* \"#utility.yul\":1428:1452   */\n      tag_118\n        /* \"#utility.yul\":1446:1451   */\n      dup2\n        /* \"#utility.yul\":1428:1452   */\n      tag_80\n      jump\t// in\n    tag_118:\n        /* \"#utility.yul\":1421:1426   */\n      dup2\n        /* \"#utility.yul\":1418:1453   */\n      eq\n        /* \"#utility.yul\":1408:1471   */\n      tag_119\n      jumpi\n        /* \"#utility.yul\":1467:1468   */\n      0x00\n        /* \"#utility.yul\":1464:1465   */\n      dup1\n        /* \"#utility.yul\":1457:1469   */\n      revert\n        /* \"#utility.yul\":1408:1471   */\n    tag_119:\n        /* \"#utility.yul\":1355:1477   */\n      pop\n      jump\t// out\n        /* \"#utility.yul\":1483:1622   */\n    tag_88:\n        /* \"#utility.yul\":1529:1534   */\n      0x00\n        /* \"#utility.yul\":1567:1573   */\n      dup2\n        /* \"#utility.yul\":1554:1574   */\n      calldataload\n        /* \"#utility.yul\":1545:1574   */\n      swap1\n      pop\n        /* \"#utility.yul\":1583:1616   */\n      tag_121\n        /* \"#utility.yul\":1610:1615   */\n      dup2\n        /* \"#utility.yul\":1583:1616   */\n      tag_87\n      jump\t// in\n    tag_121:\n        /* \"#utility.yul\":1483:1622   */\n      swap3\n      swap2\n      pop\n      pop\n      jump\t// out\n        /* \"#utility.yul\":1628:1957   */\n    tag_29:\n        /* \"#utility.yul\":1687:1693   */\n      0x00\n        /* \"#utility.yul\":1736:1738   */\n      0x20\n        /* \"#utility.yul\":1724:1733   */\n      dup3\n        /* \"#utility.yul\":1715:1722   */\n      dup5\n        /* \"#utility.yul\":1711:1734   */\n      sub\n        /* \"#utility.yul\":1707:1739   */\n      slt\n        /* \"#utility.yul\":1704:1823   */\n      iszero\n      tag_123\n      jumpi\n        /* \"#utility.yul\":1742:1821   */\n      tag_124\n      tag_85\n      jump\t// in\n    tag_124:\n        /* \"#utility.yul\":1704:1823   */\n    tag_123:\n        /* \"#utility.yul\":1862:1863   */\n      0x00\n        /* \"#utility.yul\":1887:1940   */\n      tag_125\n        /* \"#utility.yul\":1932:1939   */\n      dup5\n        /* \"#utility.yul\":1923:1929   */\n      dup3\n        /* \"#utility.yul\":1912:1921   */\n      dup6\n        /* \"#utility.yul\":1908:1930   */\n      add\n        /* \"#utility.yul\":1887:1940   */\n      tag_88\n      jump\t// in\n    tag_125:\n        /* \"#utility.yul\":1877:1940   */\n      swap2\n      pop\n        /* \"#utility.yul\":1833:1950   */\n      pop\n        /* \"#utility.yul\":1628:1957   */\n      swap3\n      swap2\n      pop\n      pop\n      jump\t// out\n        /* \"#utility.yul\":1963:2049   */\n    tag_89:\n        /* \"#utility.yul\":1998:2005   */\n      0x00\n        /* \"#utility.yul\":2038:2042   */\n      0xff\n        /* \"#utility.yul\":2031:2036   */\n      dup3\n        /* \"#utility.yul\":2027:2043   */\n      and\n        /* \"#utility.yul\":2016:2043   */\n      swap1\n      pop\n        /* \"#utility.yul\":1963:2049   */\n      swap2\n      swap1\n      pop\n      jump\t// out\n        /* \"#utility.yul\":2055:2167   */\n    tag_90:\n        /* \"#utility.yul\":2138:2160   */\n      tag_128\n        /* \"#utility.yul\":2154:2159   */\n      dup2\n        /* \"#utility.yul\":2138:2160   */\n      tag_89\n      jump\t// in\n    tag_128:\n        /* \"#utility.yul\":2133:2136   */\n      dup3\n        /* \"#utility.yul\":2126:2161   */\n      mstore\n        /* \"#utility.yul\":2055:2167   */\n      pop\n      pop\n      jump\t// out\n        /* \"#utility.yul\":2173:2387   */\n    tag_48:\n        /* \"#utility.yul\":2262:2266   */\n      0x00\n        /* \"#utility.yul\":2300:2302   */\n      0x20\n        /* \"#utility.yul\":2289:2298   */\n      dup3\n        /* \"#utility.yul\":2285:2303   */\n      add\n        /* \"#utility.yul\":2277:2303   */\n      swap1\n      pop\n        /* \"#utility.yul\":2313:2380   */\n      tag_130\n        /* \"#utility.yul\":2377:2378   */\n      0x00\n        /* \"#utility.yul\":2366:2375   */\n      dup4\n        /* \"#utility.yul\":2362:2379   */\n      add\n        /* \"#utility.yul\":2353:2359   */\n      dup5\n        /* \"#utility.yul\":2313:2380   */\n      tag_90\n      jump\t// in\n    tag_130:\n        /* \"#utility.yul\":2173:2387   */\n      swap3\n      swap2\n      pop\n      pop\n      jump\t// out\n        /* \"#utility.yul\":2393:2562   */\n    tag_91:\n        /* \"#utility.yul\":2477:2488   */\n      0x00\n        /* \"#utility.yul\":2511:2517   */\n      dup3\n        /* \"#utility.yul\":2506:2509   */\n      dup3\n        /* \"#utility.yul\":2499:2518   */\n      mstore\n        /* \"#utility.yul\":2551:2555   */\n      0x20\n        /* \"#utility.yul\":2546:2549   */\n      dup3\n        /* \"#utility.yul\":2542:2556   */\n      add\n        /* \"#utility.yul\":2527:2556   */\n      swap1\n      pop\n        /* \"#utility.yul\":2393:2562   */\n      swap3\n      swap2\n      pop\n      pop\n      jump\t// out\n        /* \"#utility.yul\":2568:2737   */\n    tag_92:\n        /* \"#utility.yul\":2708:2729   */\n      0x6c6120737562617374612066696e616c697a6f00000000000000000000000000\n        /* \"#utility.yul\":2704:2705   */\n      0x00\n        /* \"#utility.yul\":2696:2702   */\n      dup3\n        /* \"#utility.yul\":2692:2706   */\n      add\n        /* \"#utility.yul\":2685:2730   */\n      mstore\n        /* \"#utility.yul\":2568:2737   */\n      pop\n      jump\t// out\n        /* \"#utility.yul\":2743:3109   */\n    tag_93:\n        /* \"#utility.yul\":2885:2888   */\n      0x00\n        /* \"#utility.yul\":2906:2973   */\n      tag_134\n        /* \"#utility.yul\":2970:2972   */\n      0x13\n        /* \"#utility.yul\":2965:2968   */\n      dup4\n        /* \"#utility.yul\":2906:2973   */\n      tag_91\n      jump\t// in\n    tag_134:\n        /* \"#utility.yul\":2899:2973   */\n      swap2\n      pop\n        /* \"#utility.yul\":2982:3075   */\n      tag_135\n        /* \"#utility.yul\":3071:3074   */\n      dup3\n        /* \"#utility.yul\":2982:3075   */\n      tag_92\n      jump\t// in\n    tag_135:\n        /* \"#utility.yul\":3100:3102   */\n      0x20\n        /* \"#utility.yul\":3095:3098   */\n      dup3\n        /* \"#utility.yul\":3091:3103   */\n      add\n        /* \"#utility.yul\":3084:3103   */\n      swap1\n      pop\n        /* \"#utility.yul\":2743:3109   */\n      swap2\n      swap1\n      pop\n      jump\t// out\n        /* \"#utility.yul\":3115:3534   */\n    tag_65:\n        /* \"#utility.yul\":3281:3285   */\n      0x00\n        /* \"#utility.yul\":3319:3321   */\n      0x20\n        /* \"#utility.yul\":3308:3317   */\n      dup3\n        /* \"#utility.yul\":3304:3322   */\n      add\n        /* \"#utility.yul\":3296:3322   */\n      swap1\n      pop\n        /* \"#utility.yul\":3368:3377   */\n      dup2\n        /* \"#utility.yul\":3362:3366   */\n      dup2\n        /* \"#utility.yul\":3358:3378   */\n      sub\n        /* \"#utility.yul\":3354:3355   */\n      0x00\n        /* \"#utility.yul\":3343:3352   */\n      dup4\n        /* \"#utility.yul\":3339:3356   */\n      add\n        /* \"#utility.yul\":3332:3379   */\n      mstore\n        /* \"#utility.yul\":3396:3527   */\n      tag_137\n        /* \"#utility.yul\":3522:3526   */\n      dup2\n        /* \"#utility.yul\":3396:3527   */\n      tag_93\n      jump\t// in\n    tag_137:\n        /* \"#utility.yul\":3388:3527   */\n      swap1\n      pop\n        /* \"#utility.yul\":3115:3534   */\n      swap2\n      swap1\n      pop\n      jump\t// out\n        /* \"#utility.yul\":3540:3712   */\n    tag_94:\n        /* \"#utility.yul\":3680:3704   */\n      0x76616c6f72206d656e6f7220616c20696e696369616c00000000000000000000\n        /* \"#utility.yul\":3676:3677   */\n      0x00\n        /* \"#utility.yul\":3668:3674   */\n      dup3\n        /* \"#utility.yul\":3664:3678   */\n      add\n        /* \"#utility.yul\":3657:3705   */\n      mstore\n        /* \"#utility.yul\":3540:3712   */\n      pop\n      jump\t// out\n        /* \"#utility.yul\":3718:4084   */\n    tag_95:\n        /* \"#utility.yul\":3860:3863   */\n      0x00\n        /* \"#utility.yul\":3881:3948   */\n      tag_140\n        /* \"#utility.yul\":3945:3947   */\n      0x16\n        /* \"#utility.yul\":3940:3943   */\n      dup4\n        /* \"#utility.yul\":3881:3948   */\n      tag_91\n      jump\t// in\n    tag_140:\n        /* \"#utility.yul\":3874:3948   */\n      swap2\n      pop\n        /* \"#utility.yul\":3957:4050   */\n      tag_141\n        /* \"#utility.yul\":4046:4049   */\n      dup3\n        /* \"#utility.yul\":3957:4050   */\n      tag_94\n      jump\t// in\n    tag_141:\n        /* \"#utility.yul\":4075:4077   */\n      0x20\n        /* \"#utility.yul\":4070:4073   */\n      dup3\n        /* \"#utility.yul\":4066:4078   */\n      add\n        /* \"#utility.yul\":4059:4078   */\n      swap1\n      pop\n        /* \"#utility.yul\":3718:4084   */\n      swap2\n      swap1\n      pop\n      jump\t// out\n        /* \"#utility.yul\":4090:4509   */\n    tag_68:\n        /* \"#utility.yul\":4256:4260   */\n      0x00\n        /* \"#utility.yul\":4294:4296   */\n      0x20\n        /* \"#utility.yul\":4283:4292   */\n      dup3\n        /* \"#utility.yul\":4279:4297   */\n      add\n        /* \"#utility.yul\":4271:4297   */\n      swap1\n      pop\n        /* \"#utility.yul\":4343:4352   */\n      dup2\n        /* \"#utility.yul\":4337:4341   */\n      dup2\n        /* \"#utility.yul\":4333:4353   */\n      sub\n        /* \"#utility.yul\":4329:4330   */\n      0x00\n        /* \"#utility.yul\":4318:4327   */\n      dup4\n        /* \"#utility.yul\":4314:4331   */\n      add\n        /* \"#utility.yul\":4307:4354   */\n      mstore\n        /* \"#utility.yul\":4371:4502   */\n      tag_143\n        /* \"#utility.yul\":4497:4501   */\n      dup2\n        /* \"#utility.yul\":4371:4502   */\n      tag_95\n      jump\t// in\n    tag_143:\n        /* \"#utility.yul\":4363:4502   */\n      swap1\n      pop\n        /* \"#utility.yul\":4090:4509   */\n      swap2\n      swap1\n      pop\n      jump\t// out\n        /* \"#utility.yul\":4515:4695   */\n    tag_96:\n        /* \"#utility.yul\":4563:4640   */\n      0x4e487b7100000000000000000000000000000000000000000000000000000000\n        /* \"#utility.yul\":4560:4561   */\n      0x00\n        /* \"#utility.yul\":4553:4641   */\n      mstore\n        /* \"#utility.yul\":4660:4664   */\n      0x11\n        /* \"#utility.yul\":4657:4658   */\n      0x04\n        /* \"#utility.yul\":4650:4665   */\n      mstore\n        /* \"#utility.yul\":4684:4688   */\n      0x24\n        /* \"#utility.yul\":4681:4682   */\n      0x00\n        /* \"#utility.yul\":4674:4689   */\n      revert\n        /* \"#utility.yul\":4701:4892   */\n    tag_71:\n        /* \"#utility.yul\":4741:4744   */\n      0x00\n        /* \"#utility.yul\":4760:4780   */\n      tag_146\n        /* \"#utility.yul\":4778:4779   */\n      dup3\n        /* \"#utility.yul\":4760:4780   */\n      tag_82\n      jump\t// in\n    tag_146:\n        /* \"#utility.yul\":4755:4780   */\n      swap2\n      pop\n        /* \"#utility.yul\":4794:4814   */\n      tag_147\n        /* \"#utility.yul\":4812:4813   */\n      dup4\n        /* \"#utility.yul\":4794:4814   */\n      tag_82\n      jump\t// in\n    tag_147:\n        /* \"#utility.yul\":4789:4814   */\n      swap3\n      pop\n        /* \"#utility.yul\":4837:4838   */\n      dup3\n        /* \"#utility.yul\":4834:4835   */\n      dup3\n        /* \"#utility.yul\":4830:4839   */\n      add\n        /* \"#utility.yul\":4823:4839   */\n      swap1\n      pop\n        /* \"#utility.yul\":4858:4861   */\n      dup1\n        /* \"#utility.yul\":4855:4856   */\n      dup3\n        /* \"#utility.yul\":4852:4862   */\n      gt\n        /* \"#utility.yul\":4849:4885   */\n      iszero\n      tag_148\n      jumpi\n        /* \"#utility.yul\":4865:4883   */\n      tag_149\n      tag_96\n      jump\t// in\n    tag_149:\n        /* \"#utility.yul\":4849:4885   */\n    tag_148:\n        /* \"#utility.yul\":4701:4892   */\n      swap3\n      swap2\n      pop\n      pop\n      jump\t// out\n        /* \"#utility.yul\":4898:5060   */\n    tag_97:\n        /* \"#utility.yul\":5038:5052   */\n      0x6e6f207375706572617374650000000000000000000000000000000000000000\n        /* \"#utility.yul\":5034:5035   */\n      0x00\n        /* \"#utility.yul\":5026:5032   */\n      dup3\n        /* \"#utility.yul\":5022:5036   */\n      add\n        /* \"#utility.yul\":5015:5053   */\n      mstore\n        /* \"#utility.yul\":4898:5060   */\n      pop\n      jump\t// out\n        /* \"#utility.yul\":5066:5432   */\n    tag_98:\n        /* \"#utility.yul\":5208:5211   */\n      0x00\n        /* \"#utility.yul\":5229:5296   */\n      tag_152\n        /* \"#utility.yul\":5293:5295   */\n      0x0c\n        /* \"#utility.yul\":5288:5291   */\n      dup4\n        /* \"#utility.yul\":5229:5296   */\n      tag_91\n      jump\t// in\n    tag_152:\n        /* \"#utility.yul\":5222:5296   */\n      swap2\n      pop\n        /* \"#utility.yul\":5305:5398   */\n      tag_153\n        /* \"#utility.yul\":5394:5397   */\n      dup3\n        /* \"#utility.yul\":5305:5398   */\n      tag_97\n      jump\t// in\n    tag_153:\n        /* \"#utility.yul\":5423:5425   */\n      0x20\n        /* \"#utility.yul\":5418:5421   */\n      dup3\n        /* \"#utility.yul\":5414:5426   */\n      add\n        /* \"#utility.yul\":5407:5426   */\n      swap1\n      pop\n        /* \"#utility.yul\":5066:5432   */\n      swap2\n      swap1\n      pop\n      jump\t// out\n        /* \"#utility.yul\":5438:5857   */\n    tag_74:\n        /* \"#utility.yul\":5604:5608   */\n      0x00\n        /* \"#utility.yul\":5642:5644   */\n      0x20\n        /* \"#utility.yul\":5631:5640   */\n      dup3\n        /* \"#utility.yul\":5627:5645   */\n      add\n        /* \"#utility.yul\":5619:5645   */\n      swap1\n      pop\n        /* \"#utility.yul\":5691:5700   */\n      dup2\n        /* \"#utility.yul\":5685:5689   */\n      dup2\n        /* \"#utility.yul\":5681:5701   */\n      sub\n        /* \"#utility.yul\":5677:5678   */\n      0x00\n        /* \"#utility.yul\":5666:5675   */\n      dup4\n        /* \"#utility.yul\":5662:5679   */\n      add\n        /* \"#utility.yul\":5655:5702   */\n      mstore\n        /* \"#utility.yul\":5719:5850   */\n      tag_155\n        /* \"#utility.yul\":5845:5849   */\n      dup2\n        /* \"#utility.yul\":5719:5850   */\n      tag_98\n      jump\t// in\n    tag_155:\n        /* \"#utility.yul\":5711:5850   */\n      swap1\n      pop\n        /* \"#utility.yul\":5438:5857   */\n      swap2\n      swap1\n      pop\n      jump\t// out\n        /* \"#utility.yul\":5863:6036   */\n    tag_99:\n        /* \"#utility.yul\":6003:6028   */\n      0x7573746564206e6f207469656e65207065726d69736f73000000000000000000\n        /* \"#utility.yul\":5999:6000   */\n      0x00\n        /* \"#utility.yul\":5991:5997   */\n      dup3\n        /* \"#utility.yul\":5987:6001   */\n      add\n        /* \"#utility.yul\":5980:6029   */\n      mstore\n        /* \"#utility.yul\":5863:6036   */\n      pop\n      jump\t// out\n        /* \"#utility.yul\":6042:6408   */\n    tag_100:\n        /* \"#utility.yul\":6184:6187   */\n      0x00\n        /* \"#utility.yul\":6205:6272   */\n      tag_158\n        /* \"#utility.yul\":6269:6271   */\n      0x17\n        /* \"#utility.yul\":6264:6267   */\n      dup4\n        /* \"#utility.yul\":6205:6272   */\n      tag_91\n      jump\t// in\n    tag_158:\n        /* \"#utility.yul\":6198:6272   */\n      swap2\n      pop\n        /* \"#utility.yul\":6281:6374   */\n      tag_159\n        /* \"#utility.yul\":6370:6373   */\n      dup3\n        /* \"#utility.yul\":6281:6374   */\n      tag_99\n      jump\t// in\n    tag_159:\n        /* \"#utility.yul\":6399:6401   */\n      0x20\n        /* \"#utility.yul\":6394:6397   */\n      dup3\n        /* \"#utility.yul\":6390:6402   */\n      add\n        /* \"#utility.yul\":6383:6402   */\n      swap1\n      pop\n        /* \"#utility.yul\":6042:6408   */\n      swap2\n      swap1\n      pop\n      jump\t// out\n        /* \"#utility.yul\":6414:6833   */\n    tag_78:\n        /* \"#utility.yul\":6580:6584   */\n      0x00\n        /* \"#utility.yul\":6618:6620   */\n      0x20\n        /* \"#utility.yul\":6607:6616   */\n      dup3\n        /* \"#utility.yul\":6603:6621   */\n      add\n        /* \"#utility.yul\":6595:6621   */\n      swap1\n      pop\n        /* \"#utility.yul\":6667:6676   */\n      dup2\n        /* \"#utility.yul\":6661:6665   */\n      dup2\n        /* \"#utility.yul\":6657:6677   */\n      sub\n        /* \"#utility.yul\":6653:6654   */\n      0x00\n        /* \"#utility.yul\":6642:6651   */\n      dup4\n        /* \"#utility.yul\":6638:6655   */\n      add\n        /* \"#utility.yul\":6631:6678   */\n      mstore\n        /* \"#utility.yul\":6695:6826   */\n      tag_161\n        /* \"#utility.yul\":6821:6825   */\n      dup2\n        /* \"#utility.yul\":6695:6826   */\n      tag_100\n      jump\t// in\n    tag_161:\n        /* \"#utility.yul\":6687:6826   */\n      swap1\n      pop\n        /* \"#utility.yul\":6414:6833   */\n      swap2\n      swap1\n      pop\n      jump\t// out\n\n    auxdata: 0xa2646970667358221220f9f6e6495f0929f2a2e677f874d2788318d720ca187951303df05d3fdc72c7db64736f6c634300081a0033\n}\n",
				"bytecode": {
					"linkReferences": {},
					"object": "6080604052348015600e575f80fd5b503360055f6101000a81548173ffffffffffffffffffffffffffffffffffffffff021916908373ffffffffffffffffffffffffffffffffffffffff160217905550633b9aca005f819055504260018190555062093a80600154606f919060af565b60028190555060db565b5f819050919050565b7f4e487b71000000000000000000000000000000000000000000000000000000005f52601160045260245ffd5b5f60b7826079565b915060c0836079565b925082820190508082111560d55760d46082565b5b92915050565b610870806100e85f395ff3fe60806040526004361061009b575f3560e01c806383f280941161006357806383f2809414610163578063865493691461018d578063cb4ee133146101b7578063eb478056146101e1578063f128a3dd1461020b578063fc373179146102215761009b565b8063209e1d461461009f57806335e55041146100c95780633f0cc5e8146100f35780637c748b51146100fd5780637f64be4a14610139575b5f80fd5b3480156100aa575f80fd5b506100b361024b565b6040516100c09190610553565b60405180910390f35b3480156100d4575f80fd5b506100dd610273565b6040516100ea9190610584565b60405180910390f35b6100fb61027c565b005b348015610108575f80fd5b50610123600480360381019061011e91906105cb565b610403565b6040516101309190610584565b60405180910390f35b348015610144575f80fd5b5061014d610418565b60405161015a9190610584565b60405180910390f35b34801561016e575f80fd5b5061017761041e565b6040516101849190610584565b60405180910390f35b348015610198575f80fd5b506101a1610423565b6040516101ae9190610584565b60405180910390f35b3480156101c2575f80fd5b506101cb610429565b6040516101d89190610611565b60405180910390f35b3480156101ec575f80fd5b506101f561043c565b6040516102029190610553565b60405180910390f35b348015610216575f80fd5b5061021f610461565b005b34801561022c575f80fd5b5061023561050e565b6040516102429190610584565b60405180910390f35b5f60045f9054906101000a900473ffffffffffffffffffffffffffffffffffffffff16905090565b5f600354905090565b5f600460149054906101000a900460ff1660ff16146102d0576040517f08c379a00000000000000000000000000000000000000000000000000000000081526004016102c790610684565b60405180910390fd5b5f3490505f548111610317576040517f08c379a000000000000000000000000000000000000000000000000000000000815260040161030e906106ec565b60405180910390fd5b6003548111156103c5575f339050816003819055508060045f6101000a81548173ffffffffffffffffffffffffffffffffffffffff021916908373ffffffffffffffffffffffffffffffffffffffff1602179055508160065f8373ffffffffffffffffffffffffffffffffffffffff1673ffffffffffffffffffffffffffffffffffffffff1681526020019081526020015f205f8282546103b89190610737565b9250508190555050610400565b6040517f08c379a00000000000000000000000000000000000000000000000000000000081526004016103f7906107b4565b60405180910390fd5b50565b6006602052805f5260405f205f915090505481565b60035481565b5f5481565b60025481565b600460149054906101000a900460ff1681565b60045f9054906101000a900473ffffffffffffffffffffffffffffffffffffffff1681565b3373ffffffffffffffffffffffffffffffffffffffff1660055f9054906101000a900473ffffffffffffffffffffffffffffffffffffffff1673ffffffffffffffffffffffffffffffffffffffff16146104f0576040517f08c379a00000000000000000000000000000000000000000000000000000000081526004016104e79061081c565b60405180910390fd5b6001600460146101000a81548160ff021916908360ff160217905550565b60015481565b5f73ffffffffffffffffffffffffffffffffffffffff82169050919050565b5f61053d82610514565b9050919050565b61054d81610533565b82525050565b5f6020820190506105665f830184610544565b92915050565b5f819050919050565b61057e8161056c565b82525050565b5f6020820190506105975f830184610575565b92915050565b5f80fd5b6105aa81610533565b81146105b4575f80fd5b50565b5f813590506105c5816105a1565b92915050565b5f602082840312156105e0576105df61059d565b5b5f6105ed848285016105b7565b91505092915050565b5f60ff82169050919050565b61060b816105f6565b82525050565b5f6020820190506106245f830184610602565b92915050565b5f82825260208201905092915050565b7f6c6120737562617374612066696e616c697a6f000000000000000000000000005f82015250565b5f61066e60138361062a565b91506106798261063a565b602082019050919050565b5f6020820190508181035f83015261069b81610662565b9050919050565b7f76616c6f72206d656e6f7220616c20696e696369616c000000000000000000005f82015250565b5f6106d660168361062a565b91506106e1826106a2565b602082019050919050565b5f6020820190508181035f830152610703816106ca565b9050919050565b7f4e487b71000000000000000000000000000000000000000000000000000000005f52601160045260245ffd5b5f6107418261056c565b915061074c8361056c565b92508282019050808211156107645761076361070a565b5b92915050565b7f6e6f2073757065726173746500000000000000000000000000000000000000005f82015250565b5f61079e600c8361062a565b91506107a98261076a565b602082019050919050565b5f6020820190508181035f8301526107cb81610792565b9050919050565b7f7573746564206e6f207469656e65207065726d69736f730000000000000000005f82015250565b5f61080660178361062a565b9150610811826107d2565b602082019050919050565b5f6020820190508181035f830152610833816107fa565b905091905056fea2646970667358221220f9f6e6495f0929f2a2e677f874d2788318d720ca187951303df05d3fdc72c7db64736f6c634300081a0033",
					"opcodes": "PUSH1 0x80 PUSH1 0x40 MSTORE CALLVALUE DUP1 ISZERO PUSH1 0xE JUMPI PUSH0 DUP1 REVERT JUMPDEST POP CALLER PUSH1 0x5 PUSH0 PUSH2 0x100 EXP DUP2 SLOAD DUP2 PUSH20 0xFFFFFFFFFFFFFFFFFFFFFFFFFFFFFFFFFFFFFFFF MUL NOT AND SWAP1 DUP4 PUSH20 0xFFFFFFFFFFFFFFFFFFFFFFFFFFFFFFFFFFFFFFFF AND MUL OR SWAP1 SSTORE POP PUSH4 0x3B9ACA00 PUSH0 DUP2 SWAP1 SSTORE POP TIMESTAMP PUSH1 0x1 DUP2 SWAP1 SSTORE POP PUSH3 0x93A80 PUSH1 0x1 SLOAD PUSH1 0x6F SWAP2 SWAP1 PUSH1 0xAF JUMP JUMPDEST PUSH1 0x2 DUP2 SWAP1 SSTORE POP PUSH1 0xDB JUMP JUMPDEST PUSH0 DUP2 SWAP1 POP SWAP2 SWAP1 POP JUMP JUMPDEST PUSH32 0x4E487B7100000000000000000000000000000000000000000000000000000000 PUSH0 MSTORE PUSH1 0x11 PUSH1 0x4 MSTORE PUSH1 0x24 PUSH0 REVERT JUMPDEST PUSH0 PUSH1 0xB7 DUP3 PUSH1 0x79 JUMP JUMPDEST SWAP2 POP PUSH1 0xC0 DUP4 PUSH1 0x79 JUMP JUMPDEST SWAP3 POP DUP3 DUP3 ADD SWAP1 POP DUP1 DUP3 GT ISZERO PUSH1 0xD5 JUMPI PUSH1 0xD4 PUSH1 0x82 JUMP JUMPDEST JUMPDEST SWAP3 SWAP2 POP POP JUMP JUMPDEST PUSH2 0x870 DUP1 PUSH2 0xE8 PUSH0 CODECOPY PUSH0 RETURN INVALID PUSH1 0x80 PUSH1 0x40 MSTORE PUSH1 0x4 CALLDATASIZE LT PUSH2 0x9B JUMPI PUSH0 CALLDATALOAD PUSH1 0xE0 SHR DUP1 PUSH4 0x83F28094 GT PUSH2 0x63 JUMPI DUP1 PUSH4 0x83F28094 EQ PUSH2 0x163 JUMPI DUP1 PUSH4 0x86549369 EQ PUSH2 0x18D JUMPI DUP1 PUSH4 0xCB4EE133 EQ PUSH2 0x1B7 JUMPI DUP1 PUSH4 0xEB478056 EQ PUSH2 0x1E1 JUMPI DUP1 PUSH4 0xF128A3DD EQ PUSH2 0x20B JUMPI DUP1 PUSH4 0xFC373179 EQ PUSH2 0x221 JUMPI PUSH2 0x9B JUMP JUMPDEST DUP1 PUSH4 0x209E1D46 EQ PUSH2 0x9F JUMPI DUP1 PUSH4 0x35E55041 EQ PUSH2 0xC9 JUMPI DUP1 PUSH4 0x3F0CC5E8 EQ PUSH2 0xF3 JUMPI DUP1 PUSH4 0x7C748B51 EQ PUSH2 0xFD JUMPI DUP1 PUSH4 0x7F64BE4A EQ PUSH2 0x139 JUMPI JUMPDEST PUSH0 DUP1 REVERT JUMPDEST CALLVALUE DUP1 ISZERO PUSH2 0xAA JUMPI PUSH0 DUP1 REVERT JUMPDEST POP PUSH2 0xB3 PUSH2 0x24B JUMP JUMPDEST PUSH1 0x40 MLOAD PUSH2 0xC0 SWAP2 SWAP1 PUSH2 0x553 JUMP JUMPDEST PUSH1 0x40 MLOAD DUP1 SWAP2 SUB SWAP1 RETURN JUMPDEST CALLVALUE DUP1 ISZERO PUSH2 0xD4 JUMPI PUSH0 DUP1 REVERT JUMPDEST POP PUSH2 0xDD PUSH2 0x273 JUMP JUMPDEST PUSH1 0x40 MLOAD PUSH2 0xEA SWAP2 SWAP1 PUSH2 0x584 JUMP JUMPDEST PUSH1 0x40 MLOAD DUP1 SWAP2 SUB SWAP1 RETURN JUMPDEST PUSH2 0xFB PUSH2 0x27C JUMP JUMPDEST STOP JUMPDEST CALLVALUE DUP1 ISZERO PUSH2 0x108 JUMPI PUSH0 DUP1 REVERT JUMPDEST POP PUSH2 0x123 PUSH1 0x4 DUP1 CALLDATASIZE SUB DUP2 ADD SWAP1 PUSH2 0x11E SWAP2 SWAP1 PUSH2 0x5CB JUMP JUMPDEST PUSH2 0x403 JUMP JUMPDEST PUSH1 0x40 MLOAD PUSH2 0x130 SWAP2 SWAP1 PUSH2 0x584 JUMP JUMPDEST PUSH1 0x40 MLOAD DUP1 SWAP2 SUB SWAP1 RETURN JUMPDEST CALLVALUE DUP1 ISZERO PUSH2 0x144 JUMPI PUSH0 DUP1 REVERT JUMPDEST POP PUSH2 0x14D PUSH2 0x418 JUMP JUMPDEST PUSH1 0x40 MLOAD PUSH2 0x15A SWAP2 SWAP1 PUSH2 0x584 JUMP JUMPDEST PUSH1 0x40 MLOAD DUP1 SWAP2 SUB SWAP1 RETURN JUMPDEST CALLVALUE DUP1 ISZERO PUSH2 0x16E JUMPI PUSH0 DUP1 REVERT JUMPDEST POP PUSH2 0x177 PUSH2 0x41E JUMP JUMPDEST PUSH1 0x40 MLOAD PUSH2 0x184 SWAP2 SWAP1 PUSH2 0x584 JUMP JUMPDEST PUSH1 0x40 MLOAD DUP1 SWAP2 SUB SWAP1 RETURN JUMPDEST CALLVALUE DUP1 ISZERO PUSH2 0x198 JUMPI PUSH0 DUP1 REVERT JUMPDEST POP PUSH2 0x1A1 PUSH2 0x423 JUMP JUMPDEST PUSH1 0x40 MLOAD PUSH2 0x1AE SWAP2 SWAP1 PUSH2 0x584 JUMP JUMPDEST PUSH1 0x40 MLOAD DUP1 SWAP2 SUB SWAP1 RETURN JUMPDEST CALLVALUE DUP1 ISZERO PUSH2 0x1C2 JUMPI PUSH0 DUP1 REVERT JUMPDEST POP PUSH2 0x1CB PUSH2 0x429 JUMP JUMPDEST PUSH1 0x40 MLOAD PUSH2 0x1D8 SWAP2 SWAP1 PUSH2 0x611 JUMP JUMPDEST PUSH1 0x40 MLOAD DUP1 SWAP2 SUB SWAP1 RETURN JUMPDEST CALLVALUE DUP1 ISZERO PUSH2 0x1EC JUMPI PUSH0 DUP1 REVERT JUMPDEST POP PUSH2 0x1F5 PUSH2 0x43C JUMP JUMPDEST PUSH1 0x40 MLOAD PUSH2 0x202 SWAP2 SWAP1 PUSH2 0x553 JUMP JUMPDEST PUSH1 0x40 MLOAD DUP1 SWAP2 SUB SWAP1 RETURN JUMPDEST CALLVALUE DUP1 ISZERO PUSH2 0x216 JUMPI PUSH0 DUP1 REVERT JUMPDEST POP PUSH2 0x21F PUSH2 0x461 JUMP JUMPDEST STOP JUMPDEST CALLVALUE DUP1 ISZERO PUSH2 0x22C JUMPI PUSH0 DUP1 REVERT JUMPDEST POP PUSH2 0x235 PUSH2 0x50E JUMP JUMPDEST PUSH1 0x40 MLOAD PUSH2 0x242 SWAP2 SWAP1 PUSH2 0x584 JUMP JUMPDEST PUSH1 0x40 MLOAD DUP1 SWAP2 SUB SWAP1 RETURN JUMPDEST PUSH0 PUSH1 0x4 PUSH0 SWAP1 SLOAD SWAP1 PUSH2 0x100 EXP SWAP1 DIV PUSH20 0xFFFFFFFFFFFFFFFFFFFFFFFFFFFFFFFFFFFFFFFF AND SWAP1 POP SWAP1 JUMP JUMPDEST PUSH0 PUSH1 0x3 SLOAD SWAP1 POP SWAP1 JUMP JUMPDEST PUSH0 PUSH1 0x4 PUSH1 0x14 SWAP1 SLOAD SWAP1 PUSH2 0x100 EXP SWAP1 DIV PUSH1 0xFF AND PUSH1 0xFF AND EQ PUSH2 0x2D0 JUMPI PUSH1 0x40 MLOAD PUSH32 0x8C379A000000000000000000000000000000000000000000000000000000000 DUP2 MSTORE PUSH1 0x4 ADD PUSH2 0x2C7 SWAP1 PUSH2 0x684 JUMP JUMPDEST PUSH1 0x40 MLOAD DUP1 SWAP2 SUB SWAP1 REVERT JUMPDEST PUSH0 CALLVALUE SWAP1 POP PUSH0 SLOAD DUP2 GT PUSH2 0x317 JUMPI PUSH1 0x40 MLOAD PUSH32 0x8C379A000000000000000000000000000000000000000000000000000000000 DUP2 MSTORE PUSH1 0x4 ADD PUSH2 0x30E SWAP1 PUSH2 0x6EC JUMP JUMPDEST PUSH1 0x40 MLOAD DUP1 SWAP2 SUB SWAP1 REVERT JUMPDEST PUSH1 0x3 SLOAD DUP2 GT ISZERO PUSH2 0x3C5 JUMPI PUSH0 CALLER SWAP1 POP DUP2 PUSH1 0x3 DUP2 SWAP1 SSTORE POP DUP1 PUSH1 0x4 PUSH0 PUSH2 0x100 EXP DUP2 SLOAD DUP2 PUSH20 0xFFFFFFFFFFFFFFFFFFFFFFFFFFFFFFFFFFFFFFFF MUL NOT AND SWAP1 DUP4 PUSH20 0xFFFFFFFFFFFFFFFFFFFFFFFFFFFFFFFFFFFFFFFF AND MUL OR SWAP1 SSTORE POP DUP2 PUSH1 0x6 PUSH0 DUP4 PUSH20 0xFFFFFFFFFFFFFFFFFFFFFFFFFFFFFFFFFFFFFFFF AND PUSH20 0xFFFFFFFFFFFFFFFFFFFFFFFFFFFFFFFFFFFFFFFF AND DUP2 MSTORE PUSH1 0x20 ADD SWAP1 DUP2 MSTORE PUSH1 0x20 ADD PUSH0 KECCAK256 PUSH0 DUP3 DUP3 SLOAD PUSH2 0x3B8 SWAP2 SWAP1 PUSH2 0x737 JUMP JUMPDEST SWAP3 POP POP DUP2 SWAP1 SSTORE POP POP PUSH2 0x400 JUMP JUMPDEST PUSH1 0x40 MLOAD PUSH32 0x8C379A000000000000000000000000000000000000000000000000000000000 DUP2 MSTORE PUSH1 0x4 ADD PUSH2 0x3F7 SWAP1 PUSH2 0x7B4 JUMP JUMPDEST PUSH1 0x40 MLOAD DUP1 SWAP2 SUB SWAP1 REVERT JUMPDEST POP JUMP JUMPDEST PUSH1 0x6 PUSH1 0x20 MSTORE DUP1 PUSH0 MSTORE PUSH1 0x40 PUSH0 KECCAK256 PUSH0 SWAP2 POP SWAP1 POP SLOAD DUP2 JUMP JUMPDEST PUSH1 0x3 SLOAD DUP2 JUMP JUMPDEST PUSH0 SLOAD DUP2 JUMP JUMPDEST PUSH1 0x2 SLOAD DUP2 JUMP JUMPDEST PUSH1 0x4 PUSH1 0x14 SWAP1 SLOAD SWAP1 PUSH2 0x100 EXP SWAP1 DIV PUSH1 0xFF AND DUP2 JUMP JUMPDEST PUSH1 0x4 PUSH0 SWAP1 SLOAD SWAP1 PUSH2 0x100 EXP SWAP1 DIV PUSH20 0xFFFFFFFFFFFFFFFFFFFFFFFFFFFFFFFFFFFFFFFF AND DUP2 JUMP JUMPDEST CALLER PUSH20 0xFFFFFFFFFFFFFFFFFFFFFFFFFFFFFFFFFFFFFFFF AND PUSH1 0x5 PUSH0 SWAP1 SLOAD SWAP1 PUSH2 0x100 EXP SWAP1 DIV PUSH20 0xFFFFFFFFFFFFFFFFFFFFFFFFFFFFFFFFFFFFFFFF AND PUSH20 0xFFFFFFFFFFFFFFFFFFFFFFFFFFFFFFFFFFFFFFFF AND EQ PUSH2 0x4F0 JUMPI PUSH1 0x40 MLOAD PUSH32 0x8C379A000000000000000000000000000000000000000000000000000000000 DUP2 MSTORE PUSH1 0x4 ADD PUSH2 0x4E7 SWAP1 PUSH2 0x81C JUMP JUMPDEST PUSH1 0x40 MLOAD DUP1 SWAP2 SUB SWAP1 REVERT JUMPDEST PUSH1 0x1 PUSH1 0x4 PUSH1 0x14 PUSH2 0x100 EXP DUP2 SLOAD DUP2 PUSH1 0xFF MUL NOT AND SWAP1 DUP4 PUSH1 0xFF AND MUL OR SWAP1 SSTORE POP JUMP JUMPDEST PUSH1 0x1 SLOAD DUP2 JUMP JUMPDEST PUSH0 PUSH20 0xFFFFFFFFFFFFFFFFFFFFFFFFFFFFFFFFFFFFFFFF DUP3 AND SWAP1 POP SWAP2 SWAP1 POP JUMP JUMPDEST PUSH0 PUSH2 0x53D DUP3 PUSH2 0x514 JUMP JUMPDEST SWAP1 POP SWAP2 SWAP1 POP JUMP JUMPDEST PUSH2 0x54D DUP2 PUSH2 0x533 JUMP JUMPDEST DUP3 MSTORE POP POP JUMP JUMPDEST PUSH0 PUSH1 0x20 DUP3 ADD SWAP1 POP PUSH2 0x566 PUSH0 DUP4 ADD DUP5 PUSH2 0x544 JUMP JUMPDEST SWAP3 SWAP2 POP POP JUMP JUMPDEST PUSH0 DUP2 SWAP1 POP SWAP2 SWAP1 POP JUMP JUMPDEST PUSH2 0x57E DUP2 PUSH2 0x56C JUMP JUMPDEST DUP3 MSTORE POP POP JUMP JUMPDEST PUSH0 PUSH1 0x20 DUP3 ADD SWAP1 POP PUSH2 0x597 PUSH0 DUP4 ADD DUP5 PUSH2 0x575 JUMP JUMPDEST SWAP3 SWAP2 POP POP JUMP JUMPDEST PUSH0 DUP1 REVERT JUMPDEST PUSH2 0x5AA DUP2 PUSH2 0x533 JUMP JUMPDEST DUP2 EQ PUSH2 0x5B4 JUMPI PUSH0 DUP1 REVERT JUMPDEST POP JUMP JUMPDEST PUSH0 DUP2 CALLDATALOAD SWAP1 POP PUSH2 0x5C5 DUP2 PUSH2 0x5A1 JUMP JUMPDEST SWAP3 SWAP2 POP POP JUMP JUMPDEST PUSH0 PUSH1 0x20 DUP3 DUP5 SUB SLT ISZERO PUSH2 0x5E0 JUMPI PUSH2 0x5DF PUSH2 0x59D JUMP JUMPDEST JUMPDEST PUSH0 PUSH2 0x5ED DUP5 DUP3 DUP6 ADD PUSH2 0x5B7 JUMP JUMPDEST SWAP2 POP POP SWAP3 SWAP2 POP POP JUMP JUMPDEST PUSH0 PUSH1 0xFF DUP3 AND SWAP1 POP SWAP2 SWAP1 POP JUMP JUMPDEST PUSH2 0x60B DUP2 PUSH2 0x5F6 JUMP JUMPDEST DUP3 MSTORE POP POP JUMP JUMPDEST PUSH0 PUSH1 0x20 DUP3 ADD SWAP1 POP PUSH2 0x624 PUSH0 DUP4 ADD DUP5 PUSH2 0x602 JUMP JUMPDEST SWAP3 SWAP2 POP POP JUMP JUMPDEST PUSH0 DUP3 DUP3 MSTORE PUSH1 0x20 DUP3 ADD SWAP1 POP SWAP3 SWAP2 POP POP JUMP JUMPDEST PUSH32 0x6C6120737562617374612066696E616C697A6F00000000000000000000000000 PUSH0 DUP3 ADD MSTORE POP JUMP JUMPDEST PUSH0 PUSH2 0x66E PUSH1 0x13 DUP4 PUSH2 0x62A JUMP JUMPDEST SWAP2 POP PUSH2 0x679 DUP3 PUSH2 0x63A JUMP JUMPDEST PUSH1 0x20 DUP3 ADD SWAP1 POP SWAP2 SWAP1 POP JUMP JUMPDEST PUSH0 PUSH1 0x20 DUP3 ADD SWAP1 POP DUP2 DUP2 SUB PUSH0 DUP4 ADD MSTORE PUSH2 0x69B DUP2 PUSH2 0x662 JUMP JUMPDEST SWAP1 POP SWAP2 SWAP1 POP JUMP JUMPDEST PUSH32 0x76616C6F72206D656E6F7220616C20696E696369616C00000000000000000000 PUSH0 DUP3 ADD MSTORE POP JUMP JUMPDEST PUSH0 PUSH2 0x6D6 PUSH1 0x16 DUP4 PUSH2 0x62A JUMP JUMPDEST SWAP2 POP PUSH2 0x6E1 DUP3 PUSH2 0x6A2 JUMP JUMPDEST PUSH1 0x20 DUP3 ADD SWAP1 POP SWAP2 SWAP1 POP JUMP JUMPDEST PUSH0 PUSH1 0x20 DUP3 ADD SWAP1 POP DUP2 DUP2 SUB PUSH0 DUP4 ADD MSTORE PUSH2 0x703 DUP2 PUSH2 0x6CA JUMP JUMPDEST SWAP1 POP SWAP2 SWAP1 POP JUMP JUMPDEST PUSH32 0x4E487B7100000000000000000000000000000000000000000000000000000000 PUSH0 MSTORE PUSH1 0x11 PUSH1 0x4 MSTORE PUSH1 0x24 PUSH0 REVERT JUMPDEST PUSH0 PUSH2 0x741 DUP3 PUSH2 0x56C JUMP JUMPDEST SWAP2 POP PUSH2 0x74C DUP4 PUSH2 0x56C JUMP JUMPDEST SWAP3 POP DUP3 DUP3 ADD SWAP1 POP DUP1 DUP3 GT ISZERO PUSH2 0x764 JUMPI PUSH2 0x763 PUSH2 0x70A JUMP JUMPDEST JUMPDEST SWAP3 SWAP2 POP POP JUMP JUMPDEST PUSH32 0x6E6F207375706572617374650000000000000000000000000000000000000000 PUSH0 DUP3 ADD MSTORE POP JUMP JUMPDEST PUSH0 PUSH2 0x79E PUSH1 0xC DUP4 PUSH2 0x62A JUMP JUMPDEST SWAP2 POP PUSH2 0x7A9 DUP3 PUSH2 0x76A JUMP JUMPDEST PUSH1 0x20 DUP3 ADD SWAP1 POP SWAP2 SWAP1 POP JUMP JUMPDEST PUSH0 PUSH1 0x20 DUP3 ADD SWAP1 POP DUP2 DUP2 SUB PUSH0 DUP4 ADD MSTORE PUSH2 0x7CB DUP2 PUSH2 0x792 JUMP JUMPDEST SWAP1 POP SWAP2 SWAP1 POP JUMP JUMPDEST PUSH32 0x7573746564206E6F207469656E65207065726D69736F73000000000000000000 PUSH0 DUP3 ADD MSTORE POP JUMP JUMPDEST PUSH0 PUSH2 0x806 PUSH1 0x17 DUP4 PUSH2 0x62A JUMP JUMPDEST SWAP2 POP PUSH2 0x811 DUP3 PUSH2 0x7D2 JUMP JUMPDEST PUSH1 0x20 DUP3 ADD SWAP1 POP SWAP2 SWAP1 POP JUMP JUMPDEST PUSH0 PUSH1 0x20 DUP3 ADD SWAP1 POP DUP2 DUP2 SUB PUSH0 DUP4 ADD MSTORE PUSH2 0x833 DUP2 PUSH2 0x7FA JUMP JUMPDEST SWAP1 POP SWAP2 SWAP1 POP JUMP INVALID LOG2 PUSH5 0x6970667358 0x22 SLT KECCAK256 0xF9 0xF6 0xE6 BLOBHASH PUSH0 MULMOD 0x29 CALLCODE LOG2 0xE6 PUSH24 0xF874D2788318D720CA187951303DF05D3FDC72C7DB64736F PUSH13 0x634300081A0033000000000000 "
				},
				"gasEstimates": {
					"creation": {
						"codeDepositCost": "432000",
						"executionCost": "infinite",
						"totalCost": "infinite"
					},
					"external": {
						"FinzalizarSubastas()": "26717",
						"fechaInicio()": "2535",
						"getMayorOferta()": "2455",
						"getOferenteGanador()": "2516",
						"mayorOferta()": "2514",
						"ofertanteGanador()": "2574",
						"semaforo()": "2561",
						"setOferta()": "infinite",
						"tiempoDuracion()": "2447",
						"valorInicial()": "2424",
						"valoreMetido(address)": "2869"
					}
				},
				"methodIdentifiers": {
					"FinzalizarSubastas()": "f128a3dd",
					"fechaInicio()": "fc373179",
					"getMayorOferta()": "35e55041",
					"getOferenteGanador()": "209e1d46",
					"mayorOferta()": "7f64be4a",
					"ofertanteGanador()": "eb478056",
					"semaforo()": "cb4ee133",
					"setOferta()": "3f0cc5e8",
					"tiempoDuracion()": "86549369",
					"valorInicial()": "83f28094",
					"valoreMetido(address)": "7c748b51"
				}
			},
			"storageLayout": {
				"storage": [
					{
						"astId": 3,
						"contract": "Subasta.sol:Subasta",
						"label": "valorInicial",
						"offset": 0,
						"slot": "0",
						"type": "t_uint256"
					},
					{
						"astId": 5,
						"contract": "Subasta.sol:Subasta",
						"label": "fechaInicio",
						"offset": 0,
						"slot": "1",
						"type": "t_uint256"
					},
					{
						"astId": 7,
						"contract": "Subasta.sol:Subasta",
						"label": "tiempoDuracion",
						"offset": 0,
						"slot": "2",
						"type": "t_uint256"
					},
					{
						"astId": 9,
						"contract": "Subasta.sol:Subasta",
						"label": "mayorOferta",
						"offset": 0,
						"slot": "3",
						"type": "t_uint256"
					},
					{
						"astId": 11,
						"contract": "Subasta.sol:Subasta",
						"label": "ofertanteGanador",
						"offset": 0,
						"slot": "4",
						"type": "t_address"
					},
					{
						"astId": 13,
						"contract": "Subasta.sol:Subasta",
						"label": "semaforo",
						"offset": 20,
						"slot": "4",
						"type": "t_uint8"
					},
					{
						"astId": 15,
						"contract": "Subasta.sol:Subasta",
						"label": "owner",
						"offset": 0,
						"slot": "5",
						"type": "t_address"
					},
					{
						"astId": 19,
						"contract": "Subasta.sol:Subasta",
						"label": "valoreMetido",
						"offset": 0,
						"slot": "6",
						"type": "t_mapping(t_address,t_uint256)"
					}
				],
				"types": {
					"t_address": {
						"encoding": "inplace",
						"label": "address",
						"numberOfBytes": "20"
					},
					"t_mapping(t_address,t_uint256)": {
						"encoding": "mapping",
						"key": "t_address",
						"label": "mapping(address => uint256)",
						"numberOfBytes": "32",
						"value": "t_uint256"
					},
					"t_uint256": {
						"encoding": "inplace",
						"label": "uint256",
						"numberOfBytes": "32"
					},
					"t_uint8": {
						"encoding": "inplace",
						"label": "uint8",
						"numberOfBytes": "1"
					}
				}
			},
			"userdoc": {
				"kind": "user",
				"methods": {},
				"version": 1
			}
		}
	}
}